:020000040000FA
:1000000002432D7837E6FA08E6FB64014A70139044
:10001000003EE0FCA3E0FDA3E0FEA3E0FFEE4440D1
:100020008015EB4A701990003EE0FCA3E0FDA3E0D0
:10003000FEA3E0FFEE4480FEEC90003E02169A1212
:100040005BC822023B2290003EE0FCA3E0FDA3E05F
:10005000FEA3E0FF900F3812169A90003E1216A6EB
:1000600000000000900F38E0FCA3E0FDA3E0FEA339
:10007000E0FF22022AC253D9BF75FF80125CD275FD
:10008000EF02125CE11257AA125B54124757C2AF3B
:10009000900F381216A60001FFFF900F3C7401F07C
:1000A000A37406F0A37446F07F0C7E007D007C00F4
:1000B0001232DF9005AE12169A9005A61216A6000F
:1000C000000000D2AF123E6EE5C920E603020D5DCE
:1000D000E4900F0EF07B017A0379631224207BFFFA
:1000E0007A4E7959125C2ED2AF9005A3E060FA7B6C
:1000F000FF7A1E7940124947125DCF0207A7E490AC
:100100000F0FF0A3F0C202D203125C1A900F0EEF91
:10011000F07BFF7A1A79CE124947900F0EE0121742
:1001200096021F21047D41024B4507A748016450F8
:10013000030B5207B053022B5503EB57047D6102AA
:100140004B650D0C660CBF6707A7680A066A016459
:1001500070030B7207B07307D374022B7503EB7730
:10016000000000FE7BFF7A1A79D0124947900F23D6
:100170007420F0900F23E0FFC3947F50167BFF7A2A
:100180001A79FB900F37EFF0124947900F23E004E4
:10019000F080E07BFF7A1A79CE1249477B017A0F13
:1001A00079247FA0124A787B017A0F79257FB012DB
:1001B0004A787B017A0F79267FC0124A787B017AD0
:1001C0000F79277FD0124A787BFF7A1A79FF900F38
:1001D00024E0FF900F37E4F0A3EFF01249477BFFD4
:1001E0007A1B791D900F25E0FF900F37E4F0A3EF05
:1001F000F01249477BFF7A1B7941900F26E0FF9070
:100200000F37E4F0A3EFF01249477BFF7A1B795ECA
:10021000900F27E0FF900F37E4F0A3EF020347129F
:1002200055427BFF7A1B797F020D571253EF7B01FA
:100230007A0F79237FA0124A787BFF7A1A79FF120E
:1002400049477BFF7A1B798F020D577BFF7A1B7919
:10025000A9124947125C1A900F0EEFF064796008FA
:10026000E0645960030202FC7BFF7A1B79D81249D3
:1002700047900F111216A600000000900F151216DD
:10028000A600000000E4FFFEFD7C20900F15E0F8C2
:10029000A3E0F9A3E0FAA3E0FBC312155050559078
:1002A0000F15E0FCA3E0FDA3E0FEA3E0FF1246DC97
:1002B000900F22EFF06014E0FF122FC912492D7B3E
:1002C000FF7A1C7903124947125DCB7A1C791C1204
:1002D0004931900F15E0FCA3E0FDA3E0FEA3E0246C
:1002E00000FFE43EFEED3404FDE43CFC900F1512EB
:1002F000169A80917BFF7A1C793180067BFF7A1CED
:1003000079421249471247570200FEC2AF9005AA30
:100310001216A60000000C900F377401F0A37406AB
:10032000F0A37446F07B017A0579AA12591A900F4E
:1003300022EFF0D2AF6014E0FF122FC97BFF7A1CCE
:10034000794D900F37740CF0020D57E4900F28F0A0
:10035000A3F0900F28E0FEA3E0FFC39455EE648065
:10036000948140030200FE900F2D7401F0A37406E7
:10037000F0A37446F0900F37EEF0A3EFF0900F2D3E
:10038000E0FBA3E0FAA3E0F98F828E8374061217D4
:10039000151213DCFF900F39E5F0F0A3EFF0900F8A
:1003A00028A3E0FF7C007D06121373E92FF9EA3ED3
:1003B000FA9000021213DCFF900F3BE5F0F0A3EF80
:1003C000F09000041213DCFF900F3DE5F0F0A3EF76
:1003D000F07BFF7A1C796A124947900F29E004F0FC
:1003E0007006900F28E004F0020352C2AFE4900FB1
:1003F00028F0A3F0900F28E0FEA3E0FFC39455EE91
:10040000648094815053900489EEF0A3EFF0A3EE42
:10041000F0A3EFF0A3EEF0A3EFF0900F377401F02C
:10042000A37405F0A374AEF0A37401F0A37404F0F8
:10043000A37489F0A37401F0A37406F0A37446F0CA
:100440007B017A0579A61231D9900F29E004F0706A
:10045000A3900F28E004F0809BD2AF900F22E0FF22
:1004600070030200FE122FC97BFF7A1C7977900F70
:100470001E1249367BFF7A1C7903020D577BFF7AE7
:100480001B79D8124947900F111216A600000000E0
:10049000900F151216A600000000E4FFFEFD7C2060
:1004A000900F15E0F8A3E0F9A3E0FAA3E0FBC31274
:1004B00015505057900F15E0FCA3E0FDA3E0FEA3FC
:1004C000E0FF1246DC900F22EFF06014E0FF122FE5
:1004D000C912492D7BFF7A1C7903124947125DCB63
:1004E0007BFF7A1C791C124933900F15E0FCA3E0C6
:1004F000FDA3E0FEA3E02400FFE43EFEED3404FD96
:10050000E43CFC900F1512169A808F7BFF7A1C79C1
:10051000311249477BFF7A1C79901249479005B206
:10052000A3A3E0FFA3E0900F2ACFF0A3EFF0900F7A
:100530002AE0FEA3E0FF125133E4900F19F0A3F07C
:10054000900F19E0FEA3E0FFC39414EE9400400363
:100550000206327BFF7A1C79A0900F37EEF0A3EFF2
:10056000F0124947E4900F1BF0900F1BE0FFC3947B
:10057000404003020621900F19E07002A3E07009C9
:10058000740CD39F4003020618E4900F1CF0A3F0F4
:100590001250F5900F1CE0FCA3E02446F58274068F
:1005A0003CF583EFF0900F1DE004F07006900F1CF7
:1005B000E004F0C3900F1CE0940840D4900F19E0C1
:1005C000FEA3E0FFA3E0FD900F407401F0A3740FC1
:1005D000F0A3741EF0E4FBFA123901C2AF7B017A7A
:1005E000067946900F3B1216A600000800900F1ED9
:1005F000E0FCA3E0FDA3E0FEA3E0FF122D8B900F33
:1006000022EFF0D2AF6011E0FF122FC97BFF7A1CFE
:1006100079BA900F1E124936900F1BE004F00205C4
:1006200069900F1AE004F07006900F19E004F002D0
:1006300005407BFF7A1C79DA1249477BFF7A1C79E7
:10064000EE124947900F2AE0FEA3E0FF125133E477
:10065000900F19F0A3F0900F19E0FEA3E0FFC394F0
:1006600014EE9400400302079E7BFF7A1C79FA90F7
:100670000F37EEF0A3EFF0124947E4900F1BF09014
:100680000F1BE0FDC39440400302078D900F19E05B
:10069000FEA3E0FF4E7008740C9D40030207849097
:1006A0000F1BE0FD900F407401F0A3740FF0A374D2
:1006B0001EF0E4FBFA123901C2AF900F1EE0FCA35A
:1006C000E0FDA3E0FEA3E0FF7B017A067946122C51
:1006D00052900F22EFF0D2AF6011E0FF122FC97BD2
:1006E000FF7A1C794D900F1E124936C202E4900F1A
:1006F0001CF0A3F01250F5900F2CEFF0900F1CE0BF
:10070000FCA3E02446F58274063CF583E0FE6F60AE
:10071000592002567BFF7A1D7910EEFF900F37E4C7
:10072000F0A3EFF0900F2CE0FF900F39E4F0A3EF6F
:10073000F01249477BFF7A1D7924900F19E0FFA33F
:10074000E0900F37CFF0A3EFF0900F1BE0FF900F7A
:1007500039E4F0A3EFF0900F1CE0FFA3E0900F3B13
:10076000CFF0A3EFF0124947D202900F1DE004F042
:100770007006900F1CE004F0C3900F1CE09408502A
:10078000030206F4900F1BE004F002067F900F1A9C
:10079000E004F07006900F19E004F00206567BFFAB
:1007A0007A1D794D020D577BFF7A1E79D2020D57C3
:1007B0007BFF7A1D796012494753E6FD7F707E17F3
:1007C0007D007C001239BA43E6027BFF7A1D797600
:1007D000020D57125C8DC203D20153E67F20010344
:1007E000020CB9900F2D1216A6000000007BFF7AB4
:1007F0001D7983900F0FE0FFA3E0900F37CFF0A398
:10080000EFF01249477BFF7A1A79CE12494730033D
:1008100003020918C2AF9005AAE0FCA3E0FDA3E023
:10082000FEA3E0FF7B017A067946124DBA9203D20D
:10083000AF300303020918C2AF900F377401F0A361
:100840007406F0A37446F07B017A0579AA12591A4E
:10085000D2AFE4900F28F0A3F0900F317401F0A311
:100860007406F0A37446F0900F2D121665900F37A2
:1008700012169A900F31E0FBA3E0FAA3E0F9900F73
:1008800028E0FEA3E0F5828E83740612171512137A
:10089000DCFF900F3BE5F0F0A3EFF0900F28A3E012
:1008A000FF7C007D06121373E92FF9EA3EFA9000EF
:1008B000021213DCFF900F3DE5F0F0A3EFF0900083
:1008C000041213DCFF900F3FE5F0F0A3EFF07BFF85
:1008D0007A1D798D124947900F29E004F070069037
:1008E0000F28E004F0C3900F29E09455900F28E002
:1008F000648094815003020859E4FFFE7D02FC905D
:1009000005AAE0F8A3E0F9A3E0FAA3E0FBC31215FF
:1009100050500302080EC201200103020CB9C2AFFD
:100920007FFF7EFF7D017C009005AAE0F8A3E0F93F
:10093000A3E0FAA3E0FBC31215504003D38001C328
:1009400040439005AAE0FCA3E0FDA3E0FEA3E02461
:1009500001FFE43EFEE43DFDE43CFC7B017A0679C8
:1009600046124DBA401F900F10E004F07006900F31
:100970000FE004F09005AAE0FCA3E0FDA3E0FEA3D5
:10098000E0240180637FFE7EFF7D017C009005AA4C
:10099000E0F8A3E0F9A3E0FAA3E0FBC3121550408E
:1009A00003D38001C340589005AAE0FCA3E0FDA357
:1009B000E0FEA3E02402FFE43EFEE43DFDE43CFC57
:1009C0007B017A067946124DBA4034900F10E0044C
:1009D000F07006900F0FE004F09005AAE0FCA3E091
:1009E000FDA3E0FEA3E02402FFE43EFEE43DFDE4BF
:1009F0003CFC9005AA12169AC203D2AF0207DDC2D0
:100A000001D2AF020CB9125C8DC203D20153E67F52
:100A10007BFF7A1D799B1249477BFF7A1D799E9057
:100A20000F371216A63A8B7D791249477BFF7A1D44
:100A300079D6900F371216A6427000001249477BF4
:100A4000FF7A1D79EB020C94200103020CA77BFFB7
:100A50007A1E7905124947300303020B90900F2D3F
:100A60007401F0A37406F0A37446F0C2AF9005AA17
:100A7000E0FCA3E0FDA3E0FEA3E0FF7B017A0679A2
:100A800046124DBA9203D2AF300303020B90C2AFAD
:100A9000900F377401F0A37406F0A37446F07B0145
:100AA0007A0579AA12591AD2AF900F2DE0FBA3E074
:100AB000FAA3E0F91213B1FF900F37E5F0F0A3EFBE
:100AC000F09000021213DCFF900F39E5F0F0A3EF75
:100AD000F09000041213DCFF900F3BE5F0F0A3EF61
:100AE000F07BFF7A1E790F124947900F28E4F0A39C
:100AF00004F0900F28E0FEA3E0FFC39455EE64805D
:100B00009481506D900F2DE0FBA3E0FAA3E0F98FE4
:100B1000828E8374061217151213DCFF900F37E5CF
:100B2000F0F0A3EFF0900F28A3E0FF7C007D061209
:100B30001373E92FF9EA3EFA9000021213DCFF90DA
:100B40000F39E5F0F0A3EFF09000041213DCFF90F2
:100B50000F3BE5F0F0A3EFF07BFF7A1E7918124906
:100B600047900F29E004F07089900F28E004F0808E
:100B700081E4FFFE7D02FC9005AAE0F8A3E0F9A362
:100B8000E0FAA3E0FBC31215505003020A57C2015A
:100B9000200103020CA7C2AF7FFF7EFF7D017C0016
:100BA0009005AAE0F8A3E0F9A3E0FAA3E0FBC312E2
:100BB00015504003D38001C3405D9005AAE0FCA31B
:100BC000E0FDA3E0FEA3E02401FFE43EFEE43DFDE2
:100BD000E43CFC7B017A067946124DBA4039900F0D
:100BE00010E004F07006900F0FE004F09005AAE00A
:100BF000FCA3E0FDA3E0FEA3E02401FFE43EFEE44D
:100C00003DFDE43CFC9005AA12169AC203D2AF7BCC
:100C1000FF7A1E7922807D7FFE7EFF7D017C009021
:100C200005AAE0F8A3E0F9A3E0FAA3E0FBC31215DC
:100C3000504003D38001C340619005AAE0FCA3E0CB
:100C4000FDA3E0FEA3E02402FFE43EFEE43DFDE45C
:100C50003CFC7B017A067946124DBA403D900F105C
:100C6000E004F07006900F0FE004F09005AAE0FC9D
:100C7000A3E0FDA3E0FEA3E02402FFE43EFEE43D8A
:100C8000FDE43CFC9005AA12169AC203D2AF7BFF8A
:100C90007A1E7922124947020A48C201D2AF7BFF6D
:100CA0007A1E79261249477BFF7A1E792912494715
:100CB0007BFF7A1E793012494743E6800200FE7BB3
:100CC000017A04798912549C7BFF7A1E793390044F
:100CD00089E0FEA3E0FFEE3395E0FDFC900F3712B4
:100CE000169A90048BE0FEA3E0FFEE3395E0FDFC46
:100CF000900F3B12169A90048DE0FEA3E0FFEE33B6
:100D000095E0FDFC900F3F12169A804B7B017A0410
:100D100079891254647BFF7A1E7933900489E0FE4E
:100D2000A3E0FFEE3395E0FDFC900F3712169A908A
:100D3000048BE0FEA3E0FFEE3395E0FDFC900F3B5B
:100D400012169A90048DE0FEA3E0FFEE3395E0FDCD
:100D5000FC900F3F12169A1249470200FE7F007E58
:100D6000007D007C001239BA22F920E73624F950C0
:100D7000037907E4F42402FBE582158270021583EF
:100D8000DBF6E024FB501BE96014E4F0E5821582F9
:100D900070021583E004F0B40A08E4F0D9EE74019F
:100DA000F00A22C2D522ED33EC3392D5FA602AB490
:100DB000FF33EDC2E77BFF60067A0D79CBE4227A40
:100DC0000D79D420D5047A0D79CF224E614E002BB7
:100DD000494E46002D494E4600E47A08F0A3DAFC5D
:100DE0007B00740722C083C082ECC0E0EDC0E0EE5F
:100DF000C0E0EFC0E0EA75F010A4CAABF075F04DAA
:100E0000A42BFBE435F0FCEA2410FAEB34C5FBEC30
:100E100034D9FCEDC2E7FF75F056A4F42411C5F0F7
:100E2000F434C58FF0A42AE5F03BE43CF020E7144D
:100E3000121179D0E0FFD0E0FED0E0FDD0E0FC124E
:100E400010AC8014F404121179D0E0FFD0E0FED091
:100E5000E0FDD0E0FC120FA3D082D083E0FAEDD207
:100E6000E7CD33EC332482FBE4C3CF33CFCE33CE94
:100E7000CD33CD33DBF37B0775F00A846004F0A338
:100E80001B0AE5F0F0A38FF0740AA4FFACF08EF01B
:100E9000740AA42CFEACF050010C8DF0740AA42C42
:100EA000FDE435F0F0A3DBDE7407220211EEE86406
:100EB00080F8E933E83360110460F0ED33EC33700F
:100EC00009E8FCE9FDEAFEEBFF220460DED3EB9FBC
:100ED000EA9EE99DE8C2E78CF0C2F795F0400CE885
:100EE000CCF8E9CDF9EACEFAEBCFFB1211B985D0F7
:100EF000F05804700320D5B3E80470075002B2D54F
:100F00000211F892D5EC0460F7E4CCC0E0C398F885
:100F1000603B94186008400DD0E0FB0211D0E4FB68
:100F2000FAC9FC8028E830E406E4C9FBE4CAFCE81E
:100F300030E305E4C9CACBFCE854076010F8C3E904
:100F400013F9EA13FAEB13FBEC13FCD8F130F52F8D
:100F5000C3E49CFCEF9BFFEE9AFEED99FDD0E0FB15
:100F6000EF4E4D4C701222DB030211F5EC2CFCEF1E
:100F700033FFEE33FEED33FDED30E7EB0211D0EF42
:100F80002BFFEE3AFEED39FDD0E0FB50130BBB001A
:100F9000030211F8ED13FDEE13FEEF13FFEC13FC4B
:100FA0000211D0EC4D6011E8497017ED33EC3304B9
:100FB000600DE4FCFFFEFD22E933E8330470F80223
:100FC00011EE1211B958046009E4CC2481500628AE
:100FD00050090211F82840030211F5C0E0EB4A70F5
:100FE00044B98006D0E0FB0211E4EF4E701CBD80D6
:100FF00008EBFFEAFEE9FD80EBE98DF0A4FEE5F0E9
:1010000002108CE9CDF9EAFEEBFFEF89F0A4FCE5D4
:10101000F0CE89F0A42EFFE435F0CD89F0A42DFEAA
:10102000E435F08067EF4E7005BD80D780C3EF8B4D
:10103000F0A4ACF0EE8BF0A42CFCE435F0F8EF8AD1
:10104000F0A42CE5F038FCE433CB8DF0A42CFCE5C7
:10105000F03BF8EE8AF0A42CFCE5F038F8E433CF4E
:1010600089F0A42CFCE5F038CF3400CE89F0A42F11
:10107000FFE5F03EFEE433C98DF0A42EFEE5F03925
:10108000CD8AF0A42FFFE5F03EFEE43DFD33D0E035
:10109000FB50070BBB000F0211F8EC2CFCEF33FFE9
:1010A000EE33FEED33FD0211D00211F8EC5D046069
:1010B00005E8590470030211EE1211B9580460F6E4
:1010C000EC4860F2EC7004FDFEFF22C860DB248176
:1010D000C85009C398600250060211F59850CAF52D
:1010E00082E9294B4A7005AB820211E475F0007C5D
:1010F0001A7880C3EF9BEE9AED99400DC3EF9BFFEA
:10110000EE9AFEED99FDE842F0DC23ACF0D0E0FF72
:10111000D0E0FED0E0FDAB8220E7101BEB60BAEC24
:101120002CFCEF33FFEE33FEED33FD0211D0E8036C
:10113000F830E705C0F075F000EF2FFFEE33FEED5D
:1011400033FD40B830E7C280AA3F80000041200054
:101150000042C80000447A0000461C400047C350CB
:1011600000497424004B1896804CBEBC205A0E1BBC
:10117000CA6753C21C749DC5AEFB60065407601C51
:1011800023231211A7EB543860091211931211A2F4
:10119000120FA3ECF8EDF9EEFAEFCB22EB1211A24D
:1011A00080F1543803241C901149FE93FC0EEE93F9
:1011B000FD0EEE930ECE93FF22E9D2E7C933E8335A
:1011C000F892D5EDD2E7CD33EC33FC5002B2D52204
:1011D000EC30E7100FBF000C0EBE00080DBD000480
:1011E0000BEB6014A2D5EB13FCED92E7FD2274FF2C
:1011F000FCFDFEFF22E480F8A2D574FF13FC7D8085
:10120000E480EFE709F608DFFA8046E709F208DF35
:10121000FA803E88828C83E709F0A3DFFA8032E30C
:1012200009F608DFFA8078E309F208DFFA807088AF
:10123000828C83E309F0A3DFFA806489828A83E0E9
:10124000A3F608DFFA805889828A83E0A3F208DFD8
:10125000FA804C80D280FA80C680D4806980F28087
:1012600033801080A680EA809A80A880DA80E280AD
:10127000CA803389828A83ECFAE493A3C8C582C802
:10128000CCC583CCF0A3C8C582C8CCC583CCDFE96C
:10129000DEE7800D89828A83E493A3F608DFF9EC08
:1012A000FAA9F0EDFB2289828A83ECFAE0A3C8C593
:1012B00082C8CCC583CCF0A3C8C582C8CCC583CCBA
:1012C000DFEADEE880DB89828A83E493A3F208DF29
:1012D000F980CC88F0EF60010E4E60C388F0ED24F9
:1012E00002B4040050B9F582EB2402B4040050AFFC
:1012F000232345822390125373BB010689828A837C
:10130000E0225002E722BBFE02E32289828A83E4C4
:101310009322BB010CE58229F582E5833AF583E04F
:10132000225006E92582F8E622BBFE06E92582F86E
:10133000E222E58229F582E5833AF583E49322BB34
:10134000010689828A83F0225002F722BBFE01F354
:1013500022F8BB010DE58229F582E5833AF583E8A1
:10136000F0225006E92582C8F622BBFE05E9258257
:10137000C8F222EF8DF0A4A8F0CF8CF0A428CE8D77
:10138000F0A42EFE22C5F0F8A3E028F0C5F0F8E5A1
:1013900082158270021583E038F022A3F8E0C5F0D0
:1013A00025F0F0E582158270021583E0C838F0E878
:1013B00022BB010A89828A83E0F5F0A3E02250066D
:1013C00087F009E71922BBFE07E3F5F009E31922CC
:1013D00089828A83E493F5F074019322BB0110E5BE
:1013E0008229F582E5833AF583E0F5F0A3E0225007
:1013F00009E92582F886F008E622BBFE0AE9258283
:10140000F8E2F5F008E222E5832AF583E993F5F0A6
:10141000A3E99322BB010A89828A83F0E5F0A3F055
:10142000225006F709A7F01922BBFE06F3E5F009E2
:10143000F31922E88FF0A4CC8BF0A42CFCE98EF0F9
:10144000A42CFC8AF0EDA42CFCEA8EF0A4CDA8F02C
:101450008BF0A42DCC3825F0FDE98FF0A42CCD35F0
:10146000F0FCEB8EF0A4FEA9F0EB8FF0A4CFC5F05A
:101470002ECD39FEE43CFCEAA42DCE35F0FDE43C53
:10148000FC2275F008758200EF2FFFEE33FECD339E
:10149000CDCC33CCC58233C5829BED9AEC99E582E5
:1014A00098400CF582EE9BFEED9AFDEC99FC0FD571
:1014B000F0D6E4CEFBE4CDFAE4CCF9A88222B80061
:1014C000C1B90059BA002DEC8BF084CFCECDFCE52C
:1014D000F0CBF97818EF2FFFEE33FEED33FDEC3350
:1014E000FCEB33FB10D703994004EB99FB0FD8E5D5
:1014F000E4F9FA227818EF2FFFEE33FEED33FDEC1E
:1015000033FCC933C910D7059BE99A4007EC9BFC13
:10151000E99AF90FD8E0E4C9FAE4CCFB2275F0109F
:10152000EF2FFFEE33FEED33FDCC33CCC833C810C4
:10153000D7079BEC9AE899400AED9BFDEC9AFCE8F2
:1015400099F80FD5F0DAE4CDFBE4CCFAE4C8F9223F
:10155000EB9FF5F0EA9E42F0E99D42F0E89C45F0F1
:1015600022E8600FECC313FCED13FDEE13FEEF1346
:10157000FFD8F122E8600FEFC333FFEE33FEED3307
:10158000FDEC33FCD8F122BB010789828A83021764
:10159000CE5005E9F80217C2BBFE05E9F80217DADA
:1015A00089828A830217E6BB010DE58229F582E56F
:1015B000833AF5830217CE5007E92582F80217C255
:1015C000BBFE07E92582F80217DAE58229F582E5F4
:1015D000833AF5830217E6BB010789828A830216E4
:1015E0009A5005E9F802185CBBFE05E9F802186894
:1015F00022BB010DE58229F582E5833AF5830216C7
:101600009A5007E92582F802185CBBFE07E925829B
:10161000F802186822BB010789828A8302166E507D
:1016200005E9F8021825BBFE05E9F802184589828C
:101630008A830217E6E493F8740193F9740293FA2B
:10164000740393FB22BB010789828A83021803502B
:1016500005E9F80217F6BBFE05E9F802180F8982C2
:101660008A830216357401FF3395E0FEFDFCA3A3C7
:10167000A3E0CF2FF0E582158270021583E0CE3E05
:10168000F0E582158270021583E0CD3DF0E582150C
:101690008270021583E0CC3CF022ECF0A3EDF0A3C5
:1016A000EEF0A3EFF022A8828583F0D083D08212DF
:1016B00016BD1216BD1216BD1216BDE473E493A337
:1016C000C583C5F0C583C8C582C8F0A3C583C5F06E
:1016D000C583C8C582C822BB010789828A830216D6
:1016E000A65005E9F8021874BBFE05E9F802188D4A
:1016F00022BB010DE58229F582E5833AF5830216C6
:10170000A65007E92582F8021874BBFE07E9258276
:10171000F802188D22F5F0C582A4C582C5F0C583F4
:10172000A42583F58322F8E0FBA3A3E0F925F0F0DC
:10173000E582158270021583E0FA38F022EBF0A3FF
:10174000EAF0A3E9F022BB010789828A830218AF7D
:101750005005E9F80218A6BBFE05E9F80218B88999
:10176000828A830218C1BB010DE58229F582E583D7
:101770003AF5830218AF5007E92582F80218A6BB94
:10178000FE07E92582F80218B8E58229F582E5838B
:101790003AF5830218C1D083D082F8E493701274B2
:1017A0000193700DA3A393F8740193F5828883E4E9
:1017B000737402936860EFA3A3A380DF8A83898296
:1017C000E473E6FC08E6FD08E6FE08E6FF22E0FC1E
:1017D000A3E0FDA3E0FEA3E0FF22E2FC08E2FD0897
:1017E000E2FE08E2FF22E493FC740193FD7402938D
:1017F000FE740393FF22E6FB08E6F908E6FA08E622
:10180000CBF822E0F8A3E0F9A3E0FAA3E0FB22E2A0
:10181000FB08E2F908E2FA08E2CBF8227401FF3390
:1018200095E0FEFDFC080808E6CF2FF618E6CE3E50
:10183000F618E6CD3DF618E6CC3CF6227401FF33EF
:1018400095E0FEFDFC080808E2CF2FF218E2CE3E3C
:10185000F218E2CD3DF218E2CC3CF222ECF608EDB3
:10186000F608EEF608EFF622ECF208EDF208EEF2DA
:1018700008EFF222D083D082E493F608740193F645
:1018800008740293F608740393F6740473D083D03B
:1018900082E493F208740193F208740293F20874DC
:1018A0000393F2740473E6FB08E6FA08E6F922E013
:1018B000FBA3E0FAA3E0F922E2FB08E2FA08E2F96E
:1018C00022E493FB740193FA740293F922466C614B
:1018D00073685F537563636573730A00466C617365
:1018E000685F41646472657373496E76616C6964A4
:1018F0000A00466C6173685F526567416464726593
:101900007373496E76616C69640A00466C61736832
:101910005F4D656D6F72794F766572666C6F770A91
:1019200000466C6173685F426C6F636B45726173F4
:10193000654661696C65640A00466C6173685F5056
:101940006167654E72496E76616C69640A00466C27
:101950006173685F537562536563746F724E724949
:101960006E76616C69640A00466C6173685F5365EA
:1019700063746F724E72496E76616C69640A0046D8
:101980006C6173685F46756E6374696F6E4E6F74D9
:10199000537570706F727465640A00466C61736889
:1019A0005F4E6F496E666F726D6174696F6E4176DE
:1019B00061696C61626C650A00466C6173685F4FB7
:1019C0007065726174696F6E4F6E676F696E670ADA
:1019D00000466C6173685F4F7065726174696F6E09
:1019E00054696D654F75740A00466C6173685F5089
:1019F000726F6772616D4661696C65640A00466C5E
:101A00006173685F536563746F7250726F7465635E
:101A10007465640A00466C6173685F536563746F34
:101A200072556E70726F7465637465640A00466CFB
:101A30006173685F536563746F7250726F7465632E
:101A4000744661696C65640A00466C6173685F5333
:101A50006563746F72556E70726F746563744661FE
:101A6000696C65640A00466C6173685F53656374F2
:101A70006F724C6F636B65640A00466C6173685FDC
:101A8000536563746F72556E6C6F636B65640A00A7
:101A9000466C6173685F536563746F724C6F636B00
:101AA000446F776E4661696C65640A00466C6173C9
:101AB000685F57726F6E67547970650A00556E647F
:101AC0006566696E6564204572726F720A000A006D
:101AD0005072696E742074657374206368617261FA
:101AE0006374657220737472696E6720666F72200A
:101AF0007663705072696E74660A0025632C005319
:101B000050495F4E414E445F424C4B4C4F434B5FFC
:101B10005245475F414444523A25780A00535049A0
:101B20005F4E414E445F434F4E46494755524154E4
:101B3000494F4E5F5245475F414444523A25780A27
:101B4000005350495F4E414E445F535441545553E6
:101B50005F5245475F414444523A25780A0053504A
:101B6000495F4E414E445F4449455F53454C4543B0
:101B7000545F5245435F414444523A25780A004637
:101B80006C61736820726573657465642E0A004128
:101B90006C6C20626C6F636B732061726520756E74
:101BA0006C6F636B65642E0A000A446F20796F7551
:101BB000207265616C6C792077616E7420746F207F
:101BC000657261736520646174613F0A5965733A97
:101BD00079204E6F3A4E0A0045726173696E672E26
:101BE0002E2E0A00466C617368426C6F636B4572FF
:101BF000617365206661696C656420617420256C81
:101C0000640A0044696420796F7520756E6C6F6397
:101C10006B656420666C6173683F0A00457261738E
:101C2000656420726F775F616464723A256C640A40
:101C300000457261736520636F6D706C6574652E0D
:101C40000A0043616E63656C65642E0A00466C6130
:101C500073685061676552656164206661696C658F
:101C60006420617420256C640A0025643A25642C84
:101C700025642C25640A00466C61736850616765B1
:101C800050726F6772616D206661696C65640A00ED
:101C900050726F6772616D6D696E672E2E2E0A002D
:101CA00050726F6772616D6D696E6720626C6F63F1
:101CB0006B202564202E2E2E0A00466C617368501E
:101CC00061676550726F6772616D206661696C65EE
:101CD0006420617420256C640A0050726F67726121
:101CE0006D20636F6D706C6574652E0A0A00526515
:101CF0006164696E672E2E2E0A0052656164696EFA
:101D00006720626C6F636B202564202E2E2E0A00E4
:101D10007041727261793A25642076616C75653A1A
:101D200025640A00566572696679206661696C648B
:101D300020616420626C6F636B3A25752070616767
:101D4000653A257520636F6C3A25750A0052656106
:101D500064696E6720636F6D706C6574652E0A0030
:101D60005370696E20617320612053442043617277
:101D7000642E2E2E0A005370696E20656E64732ED9
:101D80000A0A005265636F726420257500256C7520
:101D90003A25642C25642C25640A007B0A00202047
:101DA000202022636F656666696369656E745F6192
:101DB00064635F7261775F76616C75655F746F5F96
:101DC0007261645F7065725F736563223A25302EBD
:101DD0003130662C0A002020202022667265717541
:101DE000656E6379223A25662C0A00202020202285
:101DF000616E67756C61725F76656C6F636974792B
:101E0000223A5B0A0020202020202020205B002591
:101E1000642C25642C2564002C25642C25642C2539
:101E200064005D2C0A005D0A00202020205D0A006D
:101E30007D0A00256C642C256C642C256C640A00DA
:101E40000A2A2A2A2A2A2A2A2A2A2A2A2A2A2A2A12
:101E50002A2A2A2A2A2A2A2A2A2A2A2A2A2A2A2AE2
:101E60002A2A2A2A2A2A2A2A2A2A2A2A2A2A2A2AD2
:101E70000A2A207669727475616C47696D62616CBB
:101E8000207265762E342E31202020202020202024
:101E90002020202020202020202020202020202A38
:101EA0000A2A2A2A2A2A2A2A2A2A2A2A2A2A2A2AB2
:101EB0002A2A2A2A2A2A2A2A2A2A2A2A2A2A2A2A82
:101EC0002A2A2A2A2A2A2A2A2A2A2A2A2A2A2A2A72
:101ED0000A005072657373206B65792E0A0A653AA1
:101EE000457261736520616C6C20666C617368205B
:101EF000626C6F636B0A753A556E6C6F636B20464C
:101F00006C6173680A723A5265616420466C617351
:101F1000680D773A577269746520466C6173680A78
:101F2000213A526573657420466C6173680A733A8E
:101F30005370696E20666F722031207365636F6E17
:101F4000640A683A53686F772068656C700A743A5F
:101F50005265616420616E67756C61722076656C94
:101F60006F636974792066726F6D20666C61736847
:101F70000A673A53686F7720416363656C657261E5
:101F800074696F6E0A663A53686F7720416E6775A1
:101F90006C61722076656C6F6369747900E5082462
:101FA0006CF582E4340FF583E0050822900F693068
:101FB0000B03900F6CE475F0011217260212F92042
:101FC00004E97F2ED2048018EF540F2490D43440BB
:101FD000D4FF30080BEF24BFB41A0050032461FF74
:101FE000E50960021509050CE50C7002050B300BC4
:101FF0000E900F69E475F001121726EF02133F02ED
:1020000059467403D20B8003E4C20BF508900F69A4
:1020100012173DE4F509F50BF50CE50960077F2083
:10202000121FE080F5750AFFC205C204C206C2078E
:10203000C209C20AC20C121FACFF700D300B057F23
:1020400000121FF1AF0CAE0B22B4255FC2D5C2083F
:10205000121FACFF24D0B40A00501A75F00A780998
:1020600030D50508B6FF0106C6A426F620D50470B3
:1020700002D20780D924CFB41A00EF5004C2E5D2AF
:10208000080222E3D20580C6D20480C0D20680BCFA
:10209000D2D580BAD20980B47F20121FE020060773
:1020A0007401B5090040F1121F9DFF121FE00220CC
:1020B0001AD20CD20A8095121F9DFB121F9DFA1294
:1020C0001F9DF94A4B700679E17A237BFF20062E8B
:1020D000E509602A7E008E82758300121312600665
:1020E0000EEE650A70F0C2D5EBC0E0EAC0E0E9C0D0
:1020F000E0EE122344D0E0F9D0E0FAD0E0FB121277
:10210000F9FF60AAEBC0E0EAC0E0E9C0E0121FE01E
:10211000D0E02401F9D0E03400FAD0E0FBE50A0475
:1021200060DCD50AD98087D20680A212232660F708
:10213000E50A700104120D69A90A600DE50A60093B
:1021400014F50A1223CEEF60F3EA30E702F404C379
:10215000995079EAF4250A0430E701E404F50A808D
:102160000D12232660C1EA050A250A120D69EA90BC
:102170000F98F030E701E4250A04D50A042009018C
:1021800014122344E4C0E01223CE900F98E06013B1
:1021900020E70714F0121FC8802204F0D0E014C01A
:1021A000E07F00121FC8E50A6007121FBF150A80F2
:1021B0000B300903121FBFD0E002201AD0E00480C8
:1021C000C4122326609EE50A04120D69900F98EA56
:1021D000F0E50A200902600104240412234474FF7C
:1021E00004C0E01223CE121FC8E50A2009026003D2
:1021F000121FBFD0E0B50AE87F45121FD2900F989A
:10220000E07F2B30E7047F2DF404C0E0121FE0D004
:10221000E075F00A84C0F0121FC9D0E0121FC90295
:10222000201A791080027908C20AC20C8008D2D51F
:10223000790A8004790AC2D5E50A047002F50AE435
:10224000FAFDFEFF121F9DFC7B08200513121F9D47
:10225000FD7B1030040A121F9DFE121F9DFF7B2084
:10226000EC3382D592D55013C3E43004069FFFE4CB
:102270009EFEE42005039DFDE49CFCE4CBF8C20532
:10228000EC700CCFCECDCCE824F8F870F38017C3F7
:10229000EF33FFEE33FEED33FDEC33FCEB33FB9914
:1022A0004002FB0FD8E9EB300505F8D0E0C448B296
:1022B00005C0E00AEC4D4E4F78207B0070C2EAB5B5
:1022C0000A0040BCC0E0122346D0F0D0E020050454
:1022D000C4C0E0C4B205C0F0121FC9D0F0D5F0EB05
:1022E00002201A12179620B75322225820884C2019
:1022F000844222264F222E44222E49209D432234FE
:102300005521614621C145212B47240150208C2DA8
:1023100020902E20B32B20942320B12023EA2A20C2
:102320004C48000020ABE50AB4FF03750A06121FF3
:102330009DFC121F9DFD121F9DFE121F9DFF900F01
:1023400091020DA6790AA2D5200714300909B91007
:10235000020404B9080104A2D5200A025001042095
:1023600006689206B509005034C0E07F2030071996
:102370007F30A206720A7209500F12239DC206C254
:102380000AC209C20C7F30800F300903E9C0E01295
:102390001FE0300903D0E0F9D0E0B509CC300917CF
:1023A0007F30B9100C121FE07F583008077F78800B
:1023B00003B90803121FE03006057F2D021FE07FDE
:1023C00020200CF87F2B200AF322920680CF7F007A
:1023D000B40700500B2491F582E4340FF583E0FF3D
:1023E00022286E756C6C2900D205121F9D3005F8ED
:1023F000C205780930D50108F602204C2D5043491A
:1024000058121F9D2403B405004001E49023FC935F
:10241000121FD1743A121FD1D20775090402222269
:10242000900F34EBF0A3EAF0A3E9F090001112133F
:1024300012900043F0E4900F41F0900F41E0FF7CD8
:10244000007BFF2455F9EC345EFA1212F9FEEF7BA3
:10245000012400F9EC3400FAEE12133F900F41E032
:1024600004F0E0B412D4E4900F41F0900F41E0FF8B
:10247000905E6793FE74122FF582E43400F583EECC
:10248000F0900F41E004F0E0B420E0900F34E0FB66
:10249000A3E0FAA3E0F91213B1FAE5F0FFEAFE9027
:1024A0000008EEF0A3EFF0900F34A3E0FA900002E2
:1024B0001213DCFAE5F0FFEAFE90000AEEF0A3EF5B
:1024C000F090003274FFF0A3745EF0A37487F09074
:1024D0000F34A3E0FAA3E0900004121766E924FF8A
:1024E000F9EA34FFFA900035EBF0A3EAF0A3E9F043
:1024F000900F34E0FBA3E0FAA3E0F9900007121775
:1025000066E924FFF9EA34FFFA900038EBF0A3EA19
:10251000F0A3E9F0900F34E0FBA3E0FAA3E0F99018
:10252000000A121766E924FFF9EA34FFFA90003B2B
:10253000EBF0A3EAF0A3E9F0900F34E0FBA3E0FA9C
:10254000A3E0F990000D121312FFC394FA50059006
:10255000001AEFF0900F34E0FBA3E0FAA3E0F9904B
:10256000000F1213DCFAE5F0FFEAFE90000CEEF02B
:10257000A3EFF0900F34A3E0FA90000E1213129024
:102580000019F0900F377401F0A37400F0A37400E9
:10259000F0A37401F0A37400F0A37412F0A374010B
:1025A000F0A37400F0A37432F0A37404F07B017AFA
:1025B0000F793712404C90003E1216A60000000022
:1025C000E4900042F090038604F0A37404F0A37436
:1025D00040F0A37401F07BFF7A5E794D12518A902E
:1025E00003867401F0A37404F0A37441F0A3740192
:1025F000F07BFF7A5E794E12518A9003867401F067
:10260000A37404F0A37442F0A37402F07BFF7A5E1B
:10261000794F12518A9003867401F0A37404F0A3D9
:102620007444F0A37401F07BFF7A5E795112518AF1
:102630009003867401F0A37404F0A37446F0A374AD
:1026400001F07BFF7A5E795312518A900386740100
:10265000F0A37404F0A37448F0A37413F07BFF7A22
:102660005E792012518A9003867401F0A37404F0FD
:10267000A3745BF0A37410F07BFF7A5E7933125180
:102680008A9003867401F0A37404F0A3746BF0A322
:102690007404F07BFF7A5E794312518A900386744A
:1026A00001F0A37404F0A37471F0A37404F07BFF31
:1026B0007A5E794902518A44039000000000520377
:1026C0006310C4EA60FF5E8BFF5EA5FF5EEF2080B3
:1026D0000100004105A300410597004105A2004407
:1026E000047E00000000410486004204870000418F
:1026F000038100410382004203756B804203776BC4
:10270000014203796A1042037B1B1841037DF541A6
:10271000037EC341037FBB410380C344035B0000CE
:10272000000044035F00000000C1156200005B0070
:1027300000102120423063408450A560C670E781BC
:10274000089129A14AB16BC18CD1ADE1CEF1EF1254
:102750003102103273225252B5429472F762D6930C
:10276000398318B37BA35AD3BDC39CF3FFE3DE24A4
:102770006234430420140164E674C744A45485A55C
:102780006AB54B85289509E5EEF5CFC5ACD58D36F4
:102790005326721611063076D766F6569546B4B7AC
:1027A0005BA77A97198738F7DFE7FED79DC7BC4844
:1027B000C458E5688678A70840186128023823C9FC
:1027C000CCD9EDE98EF9AF89489969A90AB92B5A94
:1027D000F54AD47AB76A961A710A503A332A12DB4C
:1027E000FDCBDCFBBFEB9E9B798B58BB3BAB1A6CE4
:1027F000A67C874CE45CC52C223C030C601C41ED9C
:10280000AEFD8FCDECDDCDAD2ABD0B8D689D497E33
:10281000976EB65ED54EF43E132E321E510E70FFEB
:102820009FEFBEDFDDCFFCBF1BAF3A9F598F789182
:102830008881A9B1CAA1EBD10CC12DF14EE16F1075
:102840008000A130C220E3500440257046606783B9
:10285000B99398A3FBB3DAC33DD31CE37FF35E02C5
:10286000B1129022F332D24235521462777256B5C9
:10287000EAA5CB95A88589F56EE54FD52CC50D3415
:10288000E224C314A004817466644754244405A759
:10289000DBB7FA879997B8E75FF77EC71DD73C2665
:1028A000D336F2069116B06657767646155634D969
:1028B0004CC96DF90EE92F99C889E9B98AA9AB58B5
:1028C0004448657806682718C008E1388228A3CBF9
:1028D0007DDB5CEB3FFB1E8BF99BD8ABBBBB9A4A05
:1028E000755A546A377A160AF11AD02AB33A92FD09
:1028F0002EED0FDD6CCD4DBDAAAD8B9DE88DC97C55
:10290000266C075C644C453CA22C831CE00CC1EF98
:102910001FFF3ECF5DDF7CAF9BBFBA8FD99FF86EA4
:10292000177E364E555E742E933EB20ED11EF000C9
:10293000900F6AEBF0A3EAF0A3E9F0A312169A90C5
:102940000F711216A60000000078757C0F7D017BC8
:10295000FF7A5E79F97E007F141212D320150302EC
:1029600029FA900F6DE0FCA3E0FDA3E0FEA3E0FFD9
:10297000A3E0F8A3E0F9A3E0FAA3E0FBC31215502B
:1029800050787B017A0F7975125BDDE4FCFD900FC6
:1029900071E0F8A3E0F9A3E0FAA3E0FBC31215503D
:1029A0007004C2158054900F71A3A3A3E02475F5A1
:1029B00082E4340FF583E0FFC007900F71A3A3E01A
:1029C000FEA3E0FF900F6AE0FBA3E0FAA3E0F98F1B
:1029D000828E83D0E0121351900F71E0FCA3E0FDD2
:1029E000A3E0FEA3E02401FFE43EFEE43DFDE43C61
:1029F000FC900F7112169A02296290035FE0FCA30B
:102A0000E0FDA3E0FEA3E0FF90035BE0F8A3E0F9A4
:102A1000A3E0FAA3E0FBC31215507003022AB3909F
:102A20000F6DE0FCA3E0FDA3E0FEA3E0FFA3E0F850
:102A3000A3E0F9A3E0FAA3E0FBC312155050749091
:102A4000035BA3A3A3E0245BF582E43402F583E0F7
:102A5000FFC007900F71A3A3E0FEA3E0FF900F6AF1
:102A6000E0FBA3E0FAA3E0F98F828E83D0E012139B
:102A70005190035BE0FCA3E0FDA3E0FEA3E0240192
:102A8000FFE43EE43DE43CE4FEFDFC90035B1216F3
:102A90009A900F71E0FCA3E0FDA3E0FEA3E0240107
:102AA000FFE43EFEE43DFDE43CFC900F7112169AFB
:102AB0000229FA900F71E0FCA3E0FDA3E0FEA3E081
:102AC000FF22C0E0C0F0C083C082C0D075D000C07B
:102AD00000C001C002C003C004C005C006C0071288
:102AE0005DCF9005A5E020E003022B7D7B017A05F8
:102AF00079BC1254647B017A0579B612549C900516
:102B0000AEE0FCA3E0FDA3E0FEA3E0FFE4FBFA7966
:102B100002F8D31215504003D38001C39200125B18
:102B200021900F377401F0A37405F0A374AEF0A3E5
:102B30007401F0A37405F0A374BCF0A37401F0A3B6
:102B40007406F0A37446F07B017A0579A61231D998
:102B5000900EC6EFF0C37001D39200125B21900576
:102B6000B2E0FCA3E0FDA3E0FEA3E02404FFE43E0A
:102B7000FEE43DFDE43CFC9005B212169A900488F8
:102B8000E020E003022C229005A5E030E003022CB7
:102B9000229005BC747FF0A374FFF0A3747FF0A3B0
:102BA00074FFF0A3747FF0A374FFF0E4FFFEFDFC5C
:102BB0009005A6E0F8A3E0F9A3E0FAA3E0FBC312B6
:102BC0001550603F900F377401F0A37405F0A374A3
:102BD000AEF0A37401F0A37405F0A374BCF0A37469
:102BE00001F0A37406F0A37446F07B017A0579A680
:102BF0001231D9900EC6EFF0C37001D39200125B70
:102C00002180A89005AEE0FCA3E0FDA3E0FEA3E0D8
:102C10002402FFE43EFEE43DFDE43CFC9005AE12E0
:102C2000169A9005A4E0FFA3E0900487CFF0A3EFED
:102C3000F0125DD253917FD007D006D005D004D0DA
:102C400003D002D001D000D0D0D082D083D0F0D039
:102C5000E032900F4D12169A900F51EBF0A3EAF06C
:102C6000A3E9F0900F4DA3A3E0FEA3E0FFEE540F05
:102C7000FEC3EF9480EE940840037F0122900F4D35
:102C8000E0FCA3E0FDA3E0FEA3E0FF900F68741357
:102C9000F0A37401F0A3740FF0A37460F0123FC2AC
:102CA000900F561216A600000004900F54740FF0F7
:102CB000A37460F0900F78E4F0A3F0A3F0A304F005
:102CC000A37403F07B017A0F7954123BD012542C79
:102CD0007B03900F4DE0FCA3E0FDA3E0FEA3E0FF2B
:102CE000900F68EBF0A37401F0A3740FF0A374606D
:102CF000F0124A0D900F561216A600000004900F15
:102D000054740FF0A37460F0900F4DA3A3E0FEA3E2
:102D1000E0543FFBEE5408FAC374409BFF74089ADA
:102D2000FEE49400E49400EF543FFFEE5408FEE408
:102D3000FDFC900F5C12169A900F4DA3A3E0FEA32A
:102D4000E0FFEE540FFEC374809FFF74089EFEE404
:102D5000FCFD900F5C12169A900F51A3E0FAA3E0CD
:102D6000FF900F5AEAF0A3EFF0900F787401F0A3F0
:102D7000740FF0A3745AF0A37401F0A37403F07BF2
:102D8000017A0F7954123BD07F0022900F34121633
:102D90009A900F38EBF0A3EAF0A3E9F0900F34E03B
:102DA000FCA3E0FDA3E0FEEE540FFEC3EE9408404A
:102DB000037F0122125B3BEF4E60037F0A22125118
:102DC000D2900F34E0FCA3E0FDA3E0FEA3E0FF906F
:102DD0000F687402F07B01A314F0A3740FF0A374C6
:102DE00045F0124A0D900F411216A6000000039004
:102DF0000F3F740FF0A37445F0900F78E4F0A3F048
:102E0000A3F0A304F0A304F07B017A0F793F123BF7
:102E1000D0900F3BE0FCA3E0FDA3E0FEA3E0FF9019
:102E20000F4112169A900F38A3E0FAA3E0FF900F1B
:102E30003FEAF0A3EFF0900F78E4F0A3F0A3F0A343
:102E400004F0A37403F07B017A0F793F123BD0901A
:102E50000F34E0FCA3E0FDA3E0FEA3E0FF900F68C9
:102E60007410F0A37401F0A3740FF0A37445F01272
:102E70003FC2900F411216A600000004900F3F744D
:102E80000FF0A37445F0900F78E4F0A3F0A3F0A343
:102E900004F0A37403F07B017A0F793F123BD01248
:102EA000542C7B017A0F7949124F5D900F49E07FD6
:102EB0000030E3027F0C22E4FDFC7516FF7835E656
:102EC00064806003022FC67837E6FE08E6F512EE4E
:102ED000FF7E00E46003022FA4EF24FE602A14604A
:102EE0004E24026003022FA4E5126003022FA4788F
:102EF00053860308E6FA08E6F98B138A14F51512CF
:102F000012F97C00FD022FA4E5126003022FA478C1
:102F100056860308E6FA08E6F98B138A14F515902D
:102F200000021213DCFAE5F0FFEAFCEFFD80757891
:102F300059860308E6FA08E6F975F003E512A4F5E8
:102F40008285F0831217668B138A148915E5127037
:102F50000BFC7D04783DE65480F680487839E6FE27
:102F600008E6FF4E600AEF64097003EE64047034F3
:102F7000E512C3783296502CAB13AA14A915900011
:102F8000011213127C00FD1212F9547FFF783DE606
:102F900054804FFFF674012515F515E43514F5142A
:102FA000EF4480F6ED4C601E783BE6FE08E6FFD36A
:102FB000ED9FEC9E4004AC06AD07AB13AA14A91517
:102FC000125B04E4F516AF1622EFB41500400302BD
:102FD00030C7902FD9F82828730230180230230206
:102FE000302C02303502303E02304702304F023082
:102FF0005702305F02306702306F02307702307F55
:1030000002308702308F02309702309F0230A702D1
:1030100030AF0230B70230BF7BFF7A1879CD12494A
:1030200047D3227BFF7A1879DC0230CD7BFF7A18F8
:1030300079F20230CD7BFF7A19790B0230CD7BFF1C
:103040007A1979210230CD7BFF7A197939807E7B1C
:10305000FF7A19794E80767BFF7A197968806E7BCA
:10306000FF7A19797F80667BFF7A19799B805E7B76
:10307000FF7A1979B980567BFF7A1979D1804E7B16
:10308000FF7A1979E980467BFF7A1979FE803E7BC9
:10309000FF7A1A791580367BFF7A1A792E802E7B7B
:1030A000FF7A1A794980267BFF7A1A7966801E7B1F
:1030B000FF7A1A797A80167BFF7A1A7990800E7BD4
:1030C000FF7A1A79AC80067BFF7A1A79BD124947DC
:1030D000C3227844E613920D7841E6FE08E6FFC36A
:1030E0009440EE940040047F4080008F11851112BF
:1030F000783DE6FF547F64017068EF30E72608866C
:103100000308E6FA08E6F9C2167D02E4FF124B4C0A
:103110007840740226F618E436F615111511783D3C
:10312000E6547FF6E4F513E511C313FFE513C39FDF
:10313000504D783E860308E6FA08E6F9C2167D018E
:10314000E4FF124B4C7840740126F618E436F67B07
:10315000FF7A5F7911C2167D01E4FF124B4C051313
:1031600080C5783E860308E6FA08E6F9C216AD1176
:10317000E4FF124B4C7840E51126F618E436F67859
:1031800044E654FBF6C37842E69512FF18E6940035
:10319000FEF608EFF64E701EE51264406018759654
:1031A0001175970AE59620E7FB78437601E4783DB0
:1031B000F67844F6800B759611759702E59620E730
:1031C000FB300D14E512FB7A007841E6F51808E6AD
:1031D000F519E4FDFF123DC822900F34EBF0A3EA8D
:1031E000F0A3E9F0121587E4FBFAF9F8C3121550C1
:1031F0007014900F37E0FBA3E0FAA3E0F9121587F3
:10320000125CAA124555900F34E0FBA3E0FAA3E04C
:10321000F9121587900F3DE0FBA3E0FAA3E02FF928
:10322000EA3EFAEB3DA801AC02FD900F3AE0FBA3A9
:10323000E0FAA3E0F97E007F061212D3900F34E08B
:10324000FBA3E0FAA3E0F9121587900F3DE0FBA382
:10325000E0FAA3E02FF9EA3EFAEB3DFB7F067E00A1
:103260007D007C00125A1A900F34E0FBA3E0FAA311
:10327000E0F9121587EF2406FFE43EFEE43DFDE48D
:103280003CFC1215D7E47F06FEFDFC905F0D121684
:1032900035121433900F34E0FBA3E0FAA3E0F912E7
:1032A0001645C31215504034125DD5900F37E0FB20
:1032B000A3E0FAA3E0F9125C9F1248BA900F40EF26
:1032C000F0900F34E0FBA3E0FAA3E0F91216D70068
:1032D000000000125DD8900F40E0FF227F00229096
:1032E0000F340233D6900F38E0FCA3E0FDA3E0FEDC
:1032F000A3E0FF900F34E0F8A3E0F9A3E0FAA3E025
:103300002FFFEA3EFEE93DFDE83CFCE47B02FAF9D2
:10331000F81214BE900F3F12169A900F3FE0FCA3D4
:10332000E0FDA3E0FEA3E0FF900F3CE0FBA3E0FA8A
:10333000A3E0F91244D0404D900F3FE0FCA3E0FD24
:10334000A3E0FEA3E0FF900F3412169A900F34E032
:10335000F8A3E0F9A3E0FAA3E0FBA3E0FCA3E0FDFF
:10336000A3E0FEA3E0C39BFFEE9AFEED99FDEC986F
:10337000FCE47B01FAF9F8C312155050030232E560
:10338000900F388034900F34E0F8A3E0F9A3E0FA0E
:10339000A3E0FBA3E0FCA3E0FDA3E0FEA3E0C39B4E
:1033A000FFEE9AFEED99FDEC98FCE47B01FAF9F84A
:1033B000C3121550400F900F3FE0FCA3E0FDA3E0C7
:1033C000FEA3E0FF22900F3FE0FCA3E0FDA3E0FEA0
:1033D000A3E0FF900F3812169A0232E5900F3A12CE
:1033E000169A900F3EEBF0A3EAF0A3E9F0900F3AA3
:1033F000A3A3E0FEA3E0FFEE540FFEC3EF9480EE24
:10340000940840037F0122900F3AE0FCA3E0FDA363
:10341000E0FEA3E0FF900F687413F0A37401F0A323
:10342000740FF0A37451F0123FC2900F471216A60A
:1034300000000004900F45740FF0A37451F0900F3A
:1034400078E4F0A3F0A3F0A304F0A37403F07B01ED
:103450007A0F7945123BD012542C7B03900F3AE03F
:10346000FCA3E0FDA3E0FEA3E0FF900F68EBF0A358
:103470007401F0A3740FF0A37451F0124A0D900F71
:10348000471216A600000004900F45740FF0A374B5
:1034900051F0900F41E0FCA3E0FDA3E0FEA3E0FFAC
:1034A000900F4D12169A900F3EA3E0FAA3E0FF9002
:1034B0000F4BEAF0A3EFF0900F787401F0A3740FB4
:1034C000F0A3744BF0A37401F0A37403F07B017AB2
:1034D0000F7945123BD07F00227836E612179635D9
:1034E0002E00353303353804353D05354206354762
:1034F00007354C0835510935560A355B0B35600CDC
:10350000356A0D356F0E35740F357910357E1135EE
:103510008312358813358D1435921535651635A10E
:103520001935971D359C1E35A6FF000035AB124F8F
:10353000B1807B12484580761257D9807112000302
:10354000806C12599E80671235D480621258ED80CB
:103550005D124DFF8058124F07805312417A804E02
:1035600012580780491250058044124C1C803F12AB
:103570005835803A12557880351258638030125D84
:10358000DD802B1252EE8026125C5480211258915D
:10359000801C12533180171258BF8012125C7A803F
:1035A0000D125C678008125A638003125BC878436F
:1035B000E66405601E900042E030E01790003EE0B7
:1035C000FCA3E0FDA3E0FEA3E0FFEC4D4E4F600343
:1035D000125D5422900FA97401F0A3740FF0A3742C
:1035E000A0F0A37402F07B017A047940125142905A
:1035F0000FA97401F0A3740FF0A374A1F0A37405D4
:10360000F07B017A04795B1251427837E6FC08E6D8
:10361000FD5430FF900FA0E054CF4FF0A3E020E125
:103620002EEC30E02AE6900FA030E006E04401F0F6
:103630008004E054FEF090003EE0FCA3E0FDA3E037
:10364000FEA3E0FFEE4404FEEC90003E12169A90BA
:103650000FA5E020E7357837E6FE08E6FFEE30E11B
:103660002AEF900FA030E106E04402F08004E0541D
:10367000FDF090003EE0FCA3E0FDA3E0FEA3E0FF30
:10368000EE4404FEEC90003E12169A7843E6640580
:10369000601A9003867401F0A37404F0A37440F0E0
:1036A000A37401F0FB7A0F79A012518A22C20D7F18
:1036B00001125D60125D2F5015759694E59620E716
:1036C000FB5397BFE59620E70302377A80F6125D39
:1036D00048400302377A125DC58F117851E66403C2
:1036E000600A08E64402F67512F9806DC37850E668
:1036F000951118E69400500E7851760108E64402C0
:10370000F67512F28053784C860308E6FA08E6F95B
:10371000AD117F011252197852E654FDF6AF117EB9
:1037200000C37850E69FF618E69EF618EF26F618C6
:10373000EE36F67850E618466006E51164406006FD
:1037400078517601D20DE4F512759694E59620E74E
:10375000FB5397FEE59620E7FB7852E630E01B30FE
:103760000D0354FEF6E511FB7A00784FE6F51808D4
:10377000E6F519AD127F02123DC8227512FF7837A7
:10378000E6FC08E6FDEC600302383E7835E6541F9F
:10379000600302383E783CE61846600302383E1863
:1037A000E61846600302383E7833E664047048ED5C
:1037B0004C60197856860308E6FA08E6F990000589
:1037C000121312783866700218E670727838E6784C
:1037D00031F67856860308E6FA08E6F990000512F5
:1037E0001312783866700218E67050D20D1259F133
:1037F0007F0612574A80447833E664067040783773
:10380000E6FE08E6FF4E60177856860308E6FA08DB
:10381000E6F9900005121312B50723E4B5061F78E8
:1038200038E67831F67838E61846700A7F04125781
:103830004A125A868005C20D1259F1E4F512AF12F0
:10384000228F238B248A258926E523601514601294
:1038500080007BFF7A57797A7D7E7C02125DDB7F68
:10386000FC22E523600A7833E6640660037FF722D2
:10387000E52375F007A4243EF9AF01EF2405F8E62F
:10388000FE64016009EE7FFEB405027FFB22E5E6DF
:10389000A2E1921453E6FDAA25A926A807A62408AA
:1038A000A60208A601EF2403F8A62708A628EF24FD
:1038B00005F87602A213E4335401FEEF2406F8E67D
:1038C00054FE4EF6E52314600B04702C7844E64455
:1038D00004F68024D3E5289440E527940040047D35
:1038E000408004AF28AD077845860308E6FA08E66D
:1038F000F9D2167F01124B4C30140343E6027F00CD
:1039000022900F3DEDF0A3EAF0A3EBF0900F3BEE19
:10391000F0A3EFF0C3EE94085016A3E0C394405018
:103920000FC3900F3FE09480900F3EE09408400357
:103930007F0122900F40E0FBA3E0FAA3E0F912160A
:10394000D700000000900F3BE05407FEA3E0FF907B
:103950000F3BEEF0FAA3EFF0AB07A3E0543FF0A368
:10396000E0540FF0A3E0F0AF03E4FCFD7812121571
:1039700074C004C005C006C007900F3DE0FFE4FC22
:10398000FDFE780C121574D003D002D001D000EBEC
:103990004FFBEA4EFAE94DF9E84CF8A3E0FEA3E04C
:1039A000FFEB4FFFEA4EFEE9FDE8FCA3E0FBA3E0DE
:1039B000FAA3E0F91215D77F0022900F3412169A5D
:1039C0001253EF9005A5E04401F0900F34E0FCA302
:1039D000E0FDA3E0FEA3E0FF9005B2E0F8A3E0F96C
:1039E000A3E0FAA3E02FFFEA3EFEE93DFDE83CFC40
:1039F00090047E12169A9005B2E0FCA3E0FDA3E0CD
:103A0000FEA3E0FF90048212169A9005B2E0FCA398
:103A1000E0FDA3E0FEA3E0FF900482E0F8A3E0F95C
:103A2000A3E0FAA3E0FBC312155060DEE4FFFEFD45
:103A3000FC90047EE0F8A3E0F9A3E0FAA3E0FBC366
:103A400012155060B190047EE0FCA3E0FDA3E0FEFF
:103A5000A3E0FF9005B2E0F8A3E0F9A3E0FAA3E049
:103A6000FBC3121550408F9005A5E054FEF022755F
:103A700012FF783CE6640218466003023B1F783868
:103A8000E618466003023B1F7835E6FF20E7030295
:103A90003B1F7833E6C394045003023B1FE4F52E2A
:103AA000F52FEF541F1460181460232402706178FE
:103AB0003AE61846705A125DAD5052432E01804DC1
:103AC000C3783AE6940118E694005044803F783970
:103AD000E6FE08E6FFAC06547F4C70087833E6B487
:103AE000040280297833E6B40626EF247F6012248E
:103AF00080701D7851E6B40606752E01752F008082
:103B00000C784AE6B40606752E01752F00E4F5120E
:103B1000E512700BFB7A00792E7D02FC125B04AF7C
:103B20001222C0E0C0F0C083C082C0D075D000C0F7
:103B300000C001C002C003C004C005C006C0071217
:103B40005D6B8F0D125D768F0E125D818F0F125D92
:103B50008C8F10E50D30E3287844E6FF30E106183D
:103B6000E66403600AEF30E2097843E6B4020343F7
:103B70000E017852E630E10818E6B40303430F0261
:103B8000E50D30E203125372E50D30E103125DBE24
:103B9000E50D30E003125CC1E50E30E103123C7824
:103BA000E50F30E1031236ADE50E30E003123F13AE
:103BB000AF10125D60D007D006D005D004D003D07E
:103BC00002D001D000D0D0D082D083D0F0D0E0326B
:103BD000E4900F83F0A3F0A3F0A3F090000212157D
:103BE000A7900F85EEF0A3EFF01213B1AAF0F990B1
:103BF0000F7D7401F0A3EAF0A3E9F0900F78E0FBE9
:103C0000A3E0FAA3E0F94A60209000021215A79001
:103C10000F83EEF0A3EFF01213B1AAF0F9900F802A
:103C20007401F0A3EAF0A3E9F0900F7BE0FF125CCF
:103C3000B0900F85E0FCA3E0FDD39400EC9400402D
:103C40000E900F7DA3E0FAA3E0AE02FF1250579052
:103C50000F83E0FCA3E0FDD39400EC9400400E90B1
:103C60000F80A3E0FAA3E0AE02FF124BB6900F7CE8
:103C7000E0FF125CB07F01227F01125D60125D22C5
:103C80005010759611E4F597E59620E703023D1F65
:103C900080F6784AE664026003023D1F7848E6FE3B
:103CA00008E6FFD39440EE940040047F4080008FEC
:103CB000117E00C37849E69FF618E69EF618EF26B7
:103CC000F618EE36F6784BE613920D7848E6FE08C5
:103CD000E6FFD39400EE94004024D3EF9440EE949A
:103CE0000040047D4080047849E6FD78458603085D
:103CF000E6FA08E6F9D2167F01124B4C8009784BA0
:103D0000E654FEF6187601300D15E511FB7A0078C1
:103D100048E6F51808E6F519E4FD7F01123DC822D2
:103D20007512FF783CE618466003023DC57835E61B
:103D3000541F24FE6003023DC57838E61846600330
:103D4000023DC57839E6FE08E6547FFF4E700D78D7
:103D500033E6C394044005E4F5128069C3EF94038D
:103D6000EE940050607833E664067059F512783AA4
:103D7000E6547FFF125D60783AE630E70B759611E6
:103D8000759740E59620E7FB783AE620E7187596A8
:103D900094E59620E7FB5397DFE59620E7FB4397F2
:103DA00080E59620E7FB783AE6247F600F24807058
:103DB000147851E66403600D76018009784AE66460
:103DC0000260027601AF12228F148D158A168B17AE
:103DD000E5147012E515700E7835E6C4135403FF30
:103DE000BF0203125260E514B4012EE515702A904B
:103DF0000478E0FBA3E0FAA3E0F9E5168517F012DA
:103E0000141490003EE0FCA3E0FDA3E0FEA3E04418
:103E100002FFEC90003E12169AE514B4022EE5154E
:103E2000702A90047BE0FBA3E0FAA3E0F9E5168595
:103E300017F012141490003EE0FCA3E0FDA3E0FE96
:103E4000A3E04404FFEC90003E12169A900042E07A
:103E500030E01790003EE0FCA3E0FDA3E0FEA3E00D
:103E6000FFEC4D4E4F6003125D54E4FEFF2243A071
:103E70000443A00853A0FB7F32125DB77A03797523
:103E800012499D43A0047F32125DB77F647E001209
:103E90005B6D53A0FB7F32125DB77A0379771249CD
:103EA0009D43A0047F32125DB753A0FB7F32125DA9
:103EB000B77B017A0379797D021249A143A0047F7F
:103EC00032125DB753A0FB7F32125DB77B017A03DC
:103ED000797B7D021249A143A0047F32125DB75362
:103EE000A0FB7F32125DB77B017A03797D7D0112E1
:103EF00049A17B017A0F79347D011245E243A00488
:103F00007F32125DB7900F34E0B471069003827473
:103F100001F022E4FF125D60125D084005125CFBB7
:103F2000501D759611E4F597E59620E7FB759611FF
:103F3000759780E59620E7FB78437601E408F61252
:103F40005D3C505F7844E6FF30E30280537843E6FF
:103F50006401703E783DF6124C827F35125C41BFA1
:103F6000FD147835E6FFC4135403700512444880ED
:103F700032125BC8802D7835E620E7277843E66467
:103F8000036020783CE6184660197844E64408F659
:103F900080117843E6B403051240E380067844E6D6
:103FA0004402F67843E6B40208125D15400312306D
:103FB000D222900F68F0A37401F0A37400F0A374F0
:103FC00000F0900F6412169A900F64E0FCA3E0FDDD
:103FD000A3E0FEE4FFEE54F0FEEC900F6412169A9C
:103FE000900F68E0FFA3E0FBA3E0FAA3E0F9EF1273
:103FF000133F900F64E0FCA3E0FDA3E0FEA3E0FF0D
:10400000781C121561900F69E0FBA3E0FAA3E0F9B8
:10401000900001EF121351900F64E0FCA3E0FDA3A8
:10402000E0FEA3E0FF7814121561900002EF121376
:1040300051900F64E0FCA3E0FDA3E0FEA3E0FF7855
:104040000C121561900003EF121351228B088A099C
:10405000890A53E6FDE4FF74312FF8E4F60FBF2B15
:10406000F6AB08AA09A90A1217467853A60308A6B0
:104070000208A601AB08AA09A90A90000312176654
:104080007856A60308A60208A601AB08AA09A90A41
:104090009000061217667859A60308A60208A60122
:1040A000AB08AA09A90A9000091213127832F65334
:1040B000A98F43D720759601759788E59620E7FB71
:1040C00075960B75970FE59620E7FB125DA2783386
:1040D000760343E602759601759781E59620E7FB26
:1040E0007F00227844E613920D125D978F11C378FA
:1040F00042E69F18E69400500E7843760108E644A5
:1041000002F67512F2805A783E860308E6FA08E64F
:10411000F9AD11E4FF125219AF117E007840EF267D
:10412000F618EE36F6C37842E69FFF18E69EFEF6D6
:1041300008EFF6E4F512EF4E701CE51164406016CE
:10414000759611759748E59620E7FB784376010848
:10415000E654FEF6800B759611759740E59620E7BC
:10416000FB300D15E511FB7A007841E6F51808E6FD
:10417000F519AD12E4FF123DC822900FA97401F0A9
:10418000A37400F0A37446F0A37402F07B017A04D8
:1041900079461251427837E6FC08E6900044F0EC8C
:1041A000A3F0A3E0FF900044E0FEEF5E900046F035
:1041B000A3E0FF900045E0FEEF5E900047F0900323
:1041C000867401F0A37404F0A37444F0A37402F0A5
:1041D0007B017A00794412518A9003867401F0A31E
:1041E0007404F0A37446F0A37402F07B017A0079A2
:1041F0004612518A90003EE0FCA3E0FDA3E0FEA33E
:10420000E0FFED4402FDEC90003E02169A8F1A8BFF
:104210001B8A1C891DE51A601624FE601280007B33
:10422000FF7A57797A7D117C01125DDB7FFC22E5F4
:104230001A600A7833E6640660037FF722E51A7590
:10424000F007A4243EF9AF01EF2405F8E6FE64016F
:104250006009EE7FFEB405027FFB22E5E6A2E19253
:104260001253E6FDAA1CA91DA807A61B08A6020852
:10427000A601EF2403F8A61E08A61FEF2405F87672
:1042800003A211E4335401FEEF2406F8E654FE4E77
:10429000F654F7F630120343E6027F00227512FF50
:1042A000783CE61846600302432A7835E6541F241A
:1042B000FE70777839E6FE08E6547FFF4E700D7881
:1042C00033E6C394044005E4F512805EC3EF940323
:1042D000EE940050557838E61846704E7833E66410
:1042E000067047F512783AE6547FFF125D60783A1F
:1042F000E630E70B759611759710E59620E7FB7889
:104300003AE620E710759694E59620E7FB43972060
:10431000E59620E7FB783AE6247F600A2480700A5D
:10432000785176068004784A7606AF122253D9BFB8
:10433000787FE4F6D8FD75815B024377020076E46E
:1043400093A3F8E493A34003F68001F208DFF4801E
:1043500029E493A3F85407240CC8C333C4540F446E
:1043600020C8834004F456800146F6DFE4800B0148
:10437000020408102040809026B7E47E019360BCC0
:10438000A3FF543F30E509541FFEE493A360010EE0
:10439000CF54C025E060A840B8E493A3FAE493A307
:1043A000F8E493A3C8C582C8CAC583CAF0A3C8C528
:1043B00082C8CAC583CADFE9DEE780BEAE07E4FB78
:1043C000125D60300F13A80674107E00088005C3CC
:1043D00033CE33CED8F9FF8013AF0674207E00A809
:1043E00007088005C333CE33CED8F9FFD3ED9FEC59
:1043F0009E5004EB4480FB301004EB4440FB300E35
:1044000021EB4420FB300F034404FB759611759794
:1044100040E59620E7FB7596128B97E59630E727E7
:1044200080F9759614759780E59620E7FB759615CB
:10443000AF038F97E59620E7FB200F0B759612E4EC
:10444000F597E59620E7FB22E4F5117836E6B40C03
:1044500000506A90445AF828287302447E0244852A
:104460000244BD02448C0244BD02449302449A02B9
:1044700044BD0244A10244A80244AF0244B6123A29
:104480006F8F11803B123D208F11803412429D8F1F
:1044900011802D124CE68F118026122EB78F1180BD
:1044A0001F1252A78F11801812377B8F11801112A3
:1044B00053B18F11800A1257198F1180037511FFA4
:1044C000E4FF125D60E511B4FF03125BC8AF112277
:1044D000900F4312169A900F47EBF0A3EAF0A3E96E
:1044E000F0E47F0EFEFDFC900F43E0F8A3E0F9A39B
:1044F000E0FAA3E0FBC31215504015900F43E0FC17
:10450000A3E0FDA3E0FEA3E024FE124DA44001229F
:10451000E47F0DFEFDFC900F43E0F8A3E0F9A3E07B
:10452000FAA3E0FBC31215504015900F43E0FCA323
:10453000E0FDA3E0FEA3E024FF124DA44001229081
:104540000F43E0FCA3E0FDA3E0FEA3E0FF124DB1AA
:10455000400122D322900F4112169A900F41E0FCA5
:10456000A3E0FDA3E0FEEE540FFEC3EE940840036B
:104570007F0122125B3BEF4E60037F0A221251D271
:10458000900F41E0FCA3E0FDA3E0FEA3E0FF900F4D
:10459000687402F07B01A314F0A3740FF0A3744BB2
:1045A000F0124A0D900F471216A600000003900F5C
:1045B00045740FF0A3744BF0900F78E4F0A3F0A3D0
:1045C000F0A304F0A304F07B017A0F7945123BD0ED
:1045D0007F01125CB07F0022E0FBA3E0FAA3E0F9C8
:1045E0007D06900F37EBF0A3EAF0A3E9F0A3EDF01E
:1045F000900F3AE0FF14F0EF6060E4A3F0A3748042
:10460000F053A0F77F05125DB743A008E5A030E5A1
:104610000E900F3BE0FFA3E0FEEF4E900F3BF07FCC
:1046200005125DB7900F3CE0FF7E01780108800223
:10463000C313D8FC900F3CF070C7900F3BE0FF9085
:104640000F37E0FBA3E0FAA3E0F9EF12133F900F5E
:1046500038E475F001121385809622900F661216C9
:104660009AE4FFFEFDFC900F66E0F8A3E0F9A3E0FA
:10467000FAA3E0FBC3121550700A9003901216A61D
:104680000000000074FFFFFEFD7C00900F66E0F864
:10469000A3E0F9A3E0FAA3E0FB121433900390E047
:1046A000F8A3E0F9A3E0FAA3E0FBC31215509003CE
:1046B00090700A1216A6000000007F0B22E0FCA3F7
:1046C000E0FDA3E0FEA3E02401FFE43EFEE43DFDA7
:1046D000E43CFC90039012169A7F0A22900F341249
:1046E000169A125B3BEF4E60037F0A221251D29062
:1046F0000F34E0FCA3E0FDA3E0FEA3E0FF900F6811
:1047000074D8F0A37401F0A3740FF0A3743EF012F8
:104710003FC2900F3A1216A600000004900F3874A2
:104720000FF0A3743EF0900F78E4F0A3F0A3F0A391
:1047300004F0A37403F07B017A0F7938123BD01296
:10474000542C7B017A0F7942124F5D900F42E07F2B
:104750000030E2027F04227B017A0579A4900F34B5
:10476000EBF0A3EAF0A3E9F0900F407401F0A3741A
:104770000FF0A37437F0E4FBFA7D0CFFFE12390151
:10478000900F34E0FBA3E0FAA3E0F990001E1216AC
:10479000F10000000C9000021216F10000000090E1
:1047A00000061216F10000000090000A1216F10037
:1047B00000000CE4F5F0121414900F34E0FBA3E0B9
:1047C000FAA3E0F990000E1216F10000000022900A
:1047D0000F9BEFF090035FE0FCA3E0FDA3E0FEA3DE
:1047E000E02401FFE43EE43DE43CE4FEFDFC900FE8
:1047F0009C12169A90035BE0FCA3E0FDA3E0FEA3ED
:10480000E0FF900F9CE0F8A3E0F9A3E0FAA3E0FB3F
:10481000C31215507003D21522900F9BE0FB90033A
:104820005FA3A3A3E0245BF582E43402F583EBF0FD
:10483000900F9CE0FCA3E0FDA3E0FEA3E0FF90034B
:104840005F12169A227838E6540F24FD5005800036
:10485000125BC87838E654F0601524F0601124F03B
:10486000600D24F0600924F060058000125BC878B8
:1048700037E60824FB24FC50058000125BC878430F
:10488000E6640560349003867401F0A37404F0A319
:104890007442F0A37402F07B007A00793712518AD7
:1048A00090003EE0FCA3E0FDA3E0FEA3E0FFEE44A9
:1048B00002FEEC90003E12169A22900F4112169AB8
:1048C0007F03125CB0900F41E0FCA3E0FDA3E0FE8B
:1048D000A3E0FF900F687410F0A37401F0A3740FAD
:1048E000F0A3744BF0123FC2900F471216A60000BF
:1048F0000004900F45740FF0A3744BF0900F78E410
:10490000F0A3F0A3F0A304F0A37403F07B017A0FEB
:104910007945123BD012542C7B017A0F794F124FFC
:104920005D900F4FE07F0030E3027F0C227A1B790D
:10493000E47BFF900F15E0FCA3E0FDA3E0FEA3E005
:10494000FF900F3712169A900F34EBF0A3EAF0A302
:10495000E9F0900F637401F0A3740FF0A37437F0C3
:10496000900F63E0F9A3E0FAA3E0900F66C9F0A30B
:10497000EAF0A3E9F0900F34E0FBA3E0FAA3E0F93A
:104980001255ADEE3395E0FDFC900F5F12169A12B2
:104990004D48900F5FA3A3E0FEA3E0FF227B017DC3
:1049A00002900F37EBF0A3EAF0A3E9F0A3EDF0904B
:1049B0000F3AE0FF14F0EF6053A37480F053A0F7B8
:1049C000900F37E0FBA3E0FAA3E0F91212F9FF9091
:1049D0000F3BE05F600543A010800353A0EF7F050D
:1049E000125DB743A0087F05125DB7900F3BE0FF53
:1049F0007E017801088002C313D8FC900F3BF07051
:104A0000BC900F3875F00112138580A322900F64BB
:104A100012169A900F68E0FFA3E0FBA3E0FAA3E070
:104A2000F9EF12133F900F64E0FCA3E0FDA3E0FE5A
:104A3000A3E0FF780E121561EF5410FFAB07900F43
:104A400064E0FCA3E0FDA3E0FEA3E0FF78081215FC
:104A500061EF540FFFEF4BFF900F69E0FBA3E0FA0B
:104A6000A3E0F9900001EF121351900F64A3A3A3E8
:104A7000E090000212135122EF64A06012EF64B0C4
:104A8000600DEF64C06008EF64D060037F02229085
:104A90000F40740FF0A3EFF0900F361216A600002F
:104AA0000002900F34740FF0A37440F0900F3C128A
:104AB00016A600000001AF01900F3AEAF0A3EFF054
:104AC000900F787401F0A3740FF0A3743AF0A374FC
:104AD00001F0A37403F07B017A0F7934123BD07F8D
:104AE00000228F16E4F518E5166005C39403401202
:104AF0007BFF7A57797A7D4A7C00125DDB7518FC62
:104B00008041E5E6A2E1920E53E6FDE51675F00759
:104B1000A4243EF98917E5172405F8E6640160230B
:104B2000E51624FE600A04700C7F011255E2800530
:104B30007F01125616E5172405F87601E5172406BD
:104B4000F8E4F6300E0343E602AF18228F298D2ACF
:104B50008B2B8A2C892DE59620E7FBE5294420F54F
:104B600096E52B1460132403601A14602014702639
:104B7000AD2DAF2A125BF2801DAC2CAD2DAF2A12E9
:104B80005BB28012AD2DAF2A125C068009AC2CAD51
:104B90002DAF2A125B8530161CE529D394004015F1
:104BA000AF29125D60759691E59620E7FB4397016A
:104BB000E59620E7FB22900F87ECF0A3EDF0AB0722
:104BC000AA06900F8774FFF5F012139B45F0604B17
:104BD000E4900F89F0A37480F05380EF438010E5D8
:104BE0008030E60E900F89E0FFA3E0FEEF4E900FBD
:104BF00089F0900F8AE0FF7E017801088002C313DC
:104C0000D8FC900F8AF070D1900F89E08B828A8354
:104C1000F05380EF0BBB00010A80A722900FA9740C
:104C200001F0A37400F0A37444F0A37406F07B01B8
:104C30007A04796B1251427837E6FC08E6FDECFF06
:104C40007C0074442DF582EC3400F583EFF0900382
:104C5000867401F0A37404F0A3746BF0A37402F0E3
:104C60007B017A00794412518A90003EE0FCA3E077
:104C7000FDA3E0FEA3E0FFED4404FDEC90003E0246
:104C8000169A751135A9117A007B007D08E4FF1290
:104C90005219759611759740E59620E7FBE51124AA
:104CA00002F8E6FC08E6FAECFFEAFEE5112402F859
:104CB000A60608A607E5112404F8E6FC08E6FAECC7
:104CC000FFEAFEE5112404F8A60608A607E511246C
:104CD00006F8E6FC08E6FAECFFEAFEE5112406F821
:104CE000A60608A607227512FF7837E6FE08E6FF3B
:104CF000C39480EE9400504D783CE6184670467898
:104D000035E6541F703F783AE6184670387833E637
:104D1000B4030BEF4E60197F0412574A80127833A8
:104D2000E6B4040F7838E6184670057F0312574A38
:104D3000E4F512E512700EF5967838E64480F597A2
:104D4000E59620E7FBAF12229005A3E064017053C3
:104D5000125972EF4E704C7B017A04798F7F80FE7E
:104D6000FDFC122930900F6612169AE49005A3F00C
:104D700053E6FD900F66A3A3E0FEA3E0FDAC069012
:104D80000F6F7401F0A37405F0A37498F07B017A9F
:104D900004798F12550B43E6029005A3E06401608D
:104DA000AF80F622FFEE34FFFEED34FFFDEC34FF62
:104DB000FCA3E0FBA3E0FAA3E0F9900F4AEBF0A319
:104DC000EAF0A3E9F0125CAA900F4AE0FBA3E0FA34
:104DD000A3E0F9122C52E4FFFE900F4AE0FBA3E09F
:104DE000FAA3E0F98F828E83121312F46002C322B9
:104DF0000FBF00010EE4B507E0EEB408DCD322904B
:104E00000FA97401F0A37400F0A37444F0A3740517
:104E1000F07B017A047948125142900048E0FF305B
:104E2000E30354F7F09003867401F0A37404F0A335
:104E30007448F0A37405F07B017A00794412518A1A
:104E400090003EE0FCA3E0FDA3E0FEA3E0FFEE4403
:104E500010FEEC90003E02169A120046900F34129B
:104E6000169A900F34A3A3A3E05410FFEF600A90AA
:104E700005A37401F09005A2F0900F34A3A3A3E062
:104E80005404FFEF60069005977401F0900F34A36F
:104E9000A3A3E05402FFEF60069005A37401F09015
:104EA0000F34A3A3A3E05420FFEF600343EF1022CD
:104EB0008F15AB05BB051790003EE0FCA3E0FDA3FA
:104EC000E0FEA3E04480FFEC90003E12169ABB0681
:104ED0001790003EE0FCA3E0FDA3E0FEA3E0444009
:104EE000FFEC90003E12169A900042E030E01790DE
:104EF000003EE0FCA3E0FDA3E0FEA3E0FFEC4D4E8E
:104F00004F6003125D5422900FA97401F0A3740046
:104F1000F0A37444F0A37405F07B017A047948127D
:104F20005142900048E04408F09003867401F0A3D9
:104F30007404F0A37448F0A37405F07B017A00793F
:104F40004412518A90003EE0FCA3E0FDA3E0FEA3E2
:104F5000E0FFEE4420FEEC90003E02169A900F73A4
:104F6000740FF0A374C0F0900F691216A600000031
:104F700002900F67740FF0A37473F0900F6F121606
:104F8000A600000001AF01900F6DEAF0A3EFF090D2
:104F90000F787401F0A3740FF0A3746DF0A3740183
:104FA000F0A37403F07B017A0F7967123BD07F0086
:104FB000227838E618467035A2AF33FBC2AFE490D2
:104FC0000444F0A3F0900446F0A3F0900440E0F015
:104FD00090003EE0FCA3E0FDA3E0FEA3E04420FF40
:104FE000EC90003E12169AEB24FF92AF2290003E06
:104FF000E0FCA3E0FDA3E0FEA3E04410FFEC900082
:105000003E12169A22900FA97401F0A37400F0A327
:105010007444F0A37401F0FB7A047946125142788B
:1050200038E61846701E900045F07B019003860418
:10503000F0A37404F0A37446F0A37401F07A00792D
:105040004512518A7B017A00794475270075280141
:10505000C213E4FF023841E4900F87F0A3F0ED1D86
:10506000AA0470011C4A603F900F897480F053803D
:10507000EF8F828E83E0FB900F89E0F9EB5960059A
:1050800043802080035380DF4380107B01E9780157
:10509000088002C313D8FC900F89F070D15380EFC1
:1050A0000FBF00010E80B722125CEE504753D7BCF1
:1050B00053A98F43A910E5AFA2E5920E53AFDFE5E8
:1050C000C97F0020E7027F01BF010DD20D43C91245
:1050D000E4FF0FBF03FC8002C20D43B220125CEE5E
:1050E00040F8300D0353C9ED300E0343AF2053A9F0
:1050F0008F43D740229003941217CE7810EC4D4E78
:105100004F70047CA57DA5C3EC13FCED13FDEE13DD
:10511000FEEF13FF5010EC64CCFCED644CFDEE642C
:105120004EFEEF64CEFFD8DF90039412169AEE5431
:105130007FFE22900394EEF0EFA3F0A374A5F0A3FA
:10514000F022900FA6EBF0A3EAF0A3E9F0E4F5114A
:10515000900FACE0FFE511C39F502E900FA6E0FB2F
:10516000A3E0FAA3E0F9851182758300121312FF00
:10517000900FA9E0FBA3E0FAA3E0F9851182758303
:1051800000EF121351051180C722900383EBF0A3A7
:10519000EAF0A3E9F0E4F530900389E0FFE530C3DD
:1051A0009F502E900383E0FBA3E0FAA3E0F9853043
:1051B00082758300121312FF900386E0FBA3E0FACE
:1051C000A3E0F9853082758300EF1213510530801A
:1051D000C722900F557406F0900F511216A60000CA
:1051E0000001900F4F740FF0A37455F0900F78E406
:1051F000F0A3F0A3F0A304F0A37403F07B017A0FF3
:10520000794F123BD07B017A0F7956124F5D900F88
:1052100056E0F420E1EF7F00228F138D148B158A66
:10522000168917E514D394004035E59620E7FBE591
:105230001344E0F596E5151460112403601824FE6C
:10524000701DAD17AB13AF14025AE7AC16AD17AB18
:1052500013AF14025AA7AD17AB13AF14125AC822DA
:105260007836E624E7600D24FB600E240B700F12E5
:10527000564A800D12567E80081256B28003125B89
:10528000C87843E66405601E900042E030E0179065
:10529000003EE0FCA3E0FDA3E0FEA3E0FFEC4D4EEA
:1052A0004F6003125D54227FFF783AE61846703D46
:1052B00018E618467037783CE664011846702E7878
:1052C00035E6FE30E727541F70237833E6B4040830
:1052D0007BFF7A5F7911800C7833E6B4060F7B0090
:1052E0007A0079317D017C00125B04E4FF2278377B
:1052F000E6FA08E6FB5405601990003EE0FCA3E0E6
:10530000FDA3E0FEA3E0FFED4420FDEC90003E1283
:10531000169AEB540A601990003EE0FCA3E0FDA34E
:10532000E0FEA3E0FFED4410FDEC90003E12169A63
:10533000227837E6FC08E6900044F0ECA3F09003F6
:10534000867401F0A37404F0A37476F0A37402F0E1
:105350007B017A00794412518A90003EE0FCA3E080
:10536000FDA3E0FEA3E0FFED4408FDEC90003E024B
:10537000169A78437601784A7606785176067596BD
:105380000F75978FE59620E7FB759601759781E578
:105390009620E7FB75960B75970FE59620E7FBE5E2
:1053A000C9A2E650047F0380027F0112574A0259C6
:1053B000C87839E6FE08E67DFFC39401EE940050FC
:1053C0002B783CE66401184670227838E61846705F
:1053D0001B7835E6B481157833E6B4060F7BFF7A87
:1053E0005F79117D017C00125B04E4FDAF05229022
:1053F0000F3E741FF0A374A0F0E4A3F0900F3A12D4
:1054000016A600000003900F38740FF0A3743EF04E
:10541000900F78E4F0A3F0A3F0A304F0A37403F0DA
:105420007B017A0F7938123BD07F00227F037E0008
:10543000900F64EEF0A3EFF07F007E007D007C0013
:1054400012465B125B3BEF4E6017900F64E0FEA3C9
:10545000E0FFEE3395E0FDFC12465BBF0BE57F0BF2
:10546000227F0022900F34EBF0A3EAF0A3E9F09042
:105470000382E070037F012253A0FB7F32125DB7ED
:105480007B017A03797E7D011249A1900F34124588
:10549000D843A0047F32125DB77F0022900F34EB17
:1054A000F0A3EAF0A3E9F0900382E070037F012209
:1054B00053A0FB7F32125DB77B017A03797F7D01B8
:1054C0001249A1900F341245D843A0047F32125DD7
:1054D000B77F0022900F34EBF0A3EAF0A3E9F0903D
:1054E0000F39E0F9A3E0FAA3E090047BC9F0A3EA46
:1054F000F0A3E9F0900F34E0FBA3E0FAA3E0F98C0D
:105500001E8D1FD2117F0212420D22900F6AEBF006
:10551000A3EAF0A3E9F0900F6FE0F9A3E0FAA3E0AB
:10552000900478C9F0A3EAF0A3E9F0900F6AE0FBD9
:10553000A3E0FAA3E0F98C278D28D2137F0112385B
:105540004122900F3A74FFF0900F361216A6000019
:105550000001900F34740FF0A3743AF0900F78E4C8
:10556000F0A3F0A3F0A304F0A37403F07B017A0F7F
:105570007934123BD07F0022905DDFE493FE905D92
:10558000DEE4937C002400FFEC3EFE783BE6FC0862
:10559000E6FDC39FEC9E5004AE04AF057BFF7A5D31
:1055A00079DE8E278F28C213E4FF023841900F6600
:1055B000E0CBF0A3E0CAF0A3E0C9F07F25900F6C28
:1055C000AD82AC831212F98D828C83F0A309E9704D
:1055D000010ADFEC900F66E0FBA3E0FAA3E0F9021A
:1055E0002008125D60759611759708E59620E7FB17
:1055F000759691E59620E7FBE59720E3F375961104
:10560000759708E59620E7FB759691E59620E7FBF0
:10561000E59720E3F322125D60759614759710E507
:105620009620E7FB759694E59620E7FBE59720E446
:10563000F3759614759710E59620E7FB759694E53B
:105640009620E7FBE59720E4F3229003867401F0AF
:10565000A37404F0A3745BF0A37410F07B017A00D0
:10566000794412518A90003EE0FCA3E0FDA3E0FEE5
:10567000A3E0FFEE4408FEEC90003E02169A900371
:10568000867401F0A37404F0A3746BF0A37406F0A5
:105690007B017A00794412518A90003EE0FCA3E03D
:1056A000FDA3E0FEA3E0FFED4404FDEC90003E020C
:1056B000169A9003867401F0A37404F0A37471F039
:1056C000A37404F07B017A00794412518A90003E61
:1056D000E0FCA3E0FDA3E0FEA3E0FFEE4401FEEC4E
:1056E00090003E02169A53E6FD900F397401F0A324
:1056F0007405F0A37495F07B017A0579C67D407C32
:10570000001254D443E602900597E0B401F9E49006
:105710000597F09005C6E0FF227FFF783AE6FE7815
:1057200038E6FDEEC3940150207833E6B4061A78CB
:105730003CE618467013ED70107835E6541FFEBE37
:105740000107C20D1259F1E4FF228F137833E6F5F9
:1057500014C394054009E51394055003125A86E5D5
:1057600013B405047834A6147833A613E51465132E
:105770006007AD13AF14124EB022433A5C47495450
:105780005C6D6375385C66775C73646B5C4C6962F6
:105790005C65666D385F7573625C7372635C6566C9
:1057A0006D385F757362642E630075F1FF75A4B781
:1057B0007580E8E4F5F2F5A57590FF75F33C75A6E4
:1057C0001C75A0FF43F401F5A743B00175D4FF7524
:1057D000D5FF75D6FF75E24022900FA97401F0A3A2
:1057E0007400F0A37444F0A37402F07B017A04798E
:1057F000421251427B017A007944752700752802D4
:10580000C213E4FF023841900FA97401F0A37400A1
:10581000F0A37444F0A37402F07B017A047944127B
:1058200051427B017A007944752700752802C21322
:10583000E4FF023841900FA97401F0A37400F0A3B3
:105840007444F0A37406F07B017A04796B12514220
:105850007B017A007944752700752806C213E4FF9E
:10586000023841900FA97401F0A37400F0A37444AE
:10587000F0A37413F07B017A0479481251427B0142
:105880007A007944752700752813C213E4FF0238A3
:1058900041900FA97401F0A37400F0A37444F0A325
:1058A0007410F07B017A04795B1251427B017A001B
:1058B0007944752700752810C213E4FF023841901F
:1058C0000FA97401F0A37400F0A37444F0A374044E
:1058D000F07B017A0479711251427B017A0079449C
:1058E000752700752804C213E4FF023841900FA900
:1058F0007401F0A37400F0A37444F0A37401F0FBEE
:105900007A0479401251427B017A0079447527006C
:10591000752801C213E4FF023841125C9FC004C025
:1059200005C006C007900F37E0FBA3E0FAA3E0F93B
:10593000900F411216A600000800D007D006D0052F
:10594000D0041233DC22900F99EFF0A3740DF09085
:1059500005A2E070037FFF22900F99E0B40A057F53
:105960000D1247CF900F99E0FF1247CF900F99E0AB
:10597000FF2290035FE0FCA3E0FDA3E0FEA3E0FFB5
:1059800090035BE0F8A3E0F9A3E0FAA3E0FBC31205
:1059900015507005FE7F0180047E007F002278375D
:1059A000E6086003025BC87838E6900475F0900062
:1059B0003EE0FCA3E0FDA3E0FEA3E0FFED4401FD1B
:1059C000EC90003E12169A2290003E1216A600009D
:1059D0000001900042E030E01790003EE0FCA3E0C0
:1059E000FDA3E0FEA3E0FFEC4D4E4F6003125D54BB
:1059F00022300D08784A760178517601D20ED20F06
:105A0000C2107D407C007F011243BCC20ED20FC287
:105A1000107D407C007F010243BC900F4312169A18
:105A2000AF01900F41EAF0A3EFF0900F78E4F0A3FC
:105A3000F0A3F0A3F0A3F07B017A0F7941023BD0F1
:105A4000AD07ED4480F596E59620E7FBAF97EF7F35
:105A500000FEED144480F596E59620E7FBAD97EF48
:105A60004DFF227837B6371D08B60B1990004474E5
:105A700003F07B017A007944752700752801C21371
:105A8000E4FF12384122E5E6A2E1920D53E6FD75EE
:105A90001501AF15124AE20515E515C3940340F24E
:105AA000300D0343E602228D828C831FEF600BE5ED
:105AB0009620E7FBE597F0A380F1E59620E7FBEB66
:105AC0004420F596E597F022A8051FEF600BE596B8
:105AD00020E7FBE597F20880F1E59620E7FBEB4431
